:100000000C9446000C945D000C945D000C945D0013
:100010000C945D000C945D000C945D000C945D00EC
:100020000C945D000C945D000C945D000C945D00DC
:100030000C945D000C945D000C945D000C945D00CC
:100040000C945D000C945D000C945D000C945D00BC
:100050000C945D000C945D000C945D000C945D00AC
:100060000C945D000C945D000C945D000C945D009C
:100070000C945D000C945D000C945D000C945D008C
:100080000C945D000C945D000C945D0011241FBE67
:10009000CFEFD0E1DEBFCDBF0E9461000C945200D3
:0400A000F894FFCF02
:1000A400EC010E9463000E946200CE010E94640081
:0600B400CE010E945F0076
:0400BA000C940000A2
:0400BE000E9450004C
:0200C20008959F
:0200C40008959D
:0200C60008959B
:0200C800089599
:00000001FF
